:020000040000fa
:080000000002040000000000f2
:020000040000fa
:0400080022030000cf
:020000040000fa
:04000c0022030000cb
:020000040000fa
:0400100022030000c7
:020000040000fa
:0400140022030000c3
:020000040000fa
:0400180022030000bf
:020000040000fa
:04001c0022030000bb
:020000040000fa
:0400200022030000b7
:020000040000fa
:0400240022030000b3
:020000040000fa
:0400280022030000af
:020000040000fa
:04002c0022030000ab
:020000040000fa
:0400300022030000a7
:020000040000fa
:04003400cc020000fa
:020000040000fa
:04003800220300009f
:020000040000fa
:04003c00220300009b
:020000040000fa
:040040002203000097
:020000040000fa
:04004400fc020000ba
:020000040000fa
:04004800220300008f
:020000040000fa
:04004c00220300008b
:020000040000fa
:040050002203000087
:020000040000fa
:040054002203000083
:020000040000fa
:04005800220300007f
:020000040000fa
:04005c00220300007b
:020000040000fa
:040060002203000077
:020000040000fa
:040064002203000073
:020000040000fa
:04006800220300006f
:020000040000fa
:04006c00220300006b
:020000040000fa
:040070002203000067
:020000040000fa
:040074002203000063
:020000040000fa
:04007800220300005f
:020000040000fa
:04007c00220300005b
:020000040000fa
:040080002203000057
:020000040000fa
:040084002203000053
:020000040000fa
:04008800220300004f
:020000040000fa
:04008c00220300004b
:020000040000fa
:040090002203000047
:020000040000fa
:040094002203000043
:020000040000fa
:04009800220300003f
:020000040000fa
:04009c00220300003b
:020000040000fa
:0400a0002203000037
:020000040000fa
:0400a4002203000033
:020000040000fa
:0400a800220300002f
:020000040000fa
:0400ac00220300002b
:020000040000fa
:0400b0002203000027
:020000040000fa
:0400b4002203000023
:020000040000fa
:0400b800220300001f
:020000040000fa
:0400bc00220300001b
:020000040000fa
:0400c0002203000017
:020000040000fa
:0400c4002203000013
:020000040000fa
:0400c800220300000f
:020000040000fa
:0400cc00220300000b
:020000040000fa
:0400d0002203000007
:020000040000fa
:0400d4002203000003
:020000040000fa
:0400d80022030000ff
:020000040000fa
:0400dc0022030000fb
:020000040000fa
:0400e00022030000f7
:020000040000fa
:0400e40022030000f3
:020000040000fa
:0400e80022030000ef
:020000040000fa
:0400ec0022030000eb
:020000040000fa
:0400f00022030000e7
:020000040000fa
:0400f40022030000e3
:020000040000fa
:0400f80022030000df
:020000040000fa
:0400fc0022030000db
:020000040000fa
:0401000022030000d6
:020000040000fa
:0401040022030000d2
:020000040000fa
:0401080022030000ce
:020000040000fa
:04010c0022030000ca
:020000040000fa
:0401100022030000c6
:020000040000fa
:0401140022030000c2
:020000040000fa
:0401180022030000be
:020000040000fa
:04011c0022030000ba
:020000040000fa
:0401200022030000b6
:020000040000fa
:0401240022030000b2
:020000040000fa
:0401280022030000ae
:020000040000fa
:04012c0022030000aa
:020000040000fa
:0401300022030000a6
:020000040000fa
:0401340022030000a2
:020000040000fa
:04013800220300009e
:020000040000fa
:04013c00220300009a
:020000040000fa
:040140002203000096
:020000040000fa
:040144002203000092
:020000040000fa
:04014800220300008e
:020000040000fa
:04014c00220300008a
:020000040000fa
:040150002203000086
:020000040000fa
:040154002203000082
:020000040000fa
:04015800220300007e
:020000040000fa
:04015c00220300007a
:020000040000fa
:040160002203000076
:020000040000fa
:040164002203000072
:020000040000fa
:0402080022030000cd
:020000040000fa
:04020c0022030000c9
:020000040000fa
:0402100022030000c5
:020000040000fa
:0402140022030000c1
:020000040000fa
:0402180022030000bd
:020000040000fa
:04021c0022030000b9
:020000040000fa
:0402200022030000b5
:020000040000fa
:0402240022030000b1
:020000040000fa
:0402280022030000ad
:020000040000fa
:04022c0022030000a9
:020000040000fa
:0402300022030000a5
:020000040000fa
:04023400cc020000f8
:020000040000fa
:04023800220300009d
:020000040000fa
:04023c002203000099
:020000040000fa
:040240002203000095
:020000040000fa
:04024400fc020000b8
:020000040000fa
:04024800220300008d
:020000040000fa
:04024c002203000089
:020000040000fa
:040250002203000085
:020000040000fa
:040254002203000081
:020000040000fa
:04025800220300007d
:020000040000fa
:04025c002203000079
:020000040000fa
:040260002203000075
:020000040000fa
:040264002203000071
:020000040000fa
:04026800220300006d
:020000040000fa
:04026c002203000069
:020000040000fa
:040270002203000065
:020000040000fa
:040274002203000061
:020000040000fa
:04027800220300005d
:020000040000fa
:04027c002203000059
:020000040000fa
:040280002203000055
:020000040000fa
:040284002203000051
:020000040000fa
:04028800220300004d
:020000040000fa
:04028c002203000049
:020000040000fa
:040290002203000045
:020000040000fa
:040294002203000041
:020000040000fa
:04029800220300003d
:020000040000fa
:04029c002203000039
:020000040000fa
:0402a0002203000035
:020000040000fa
:0402a4002203000031
:020000040000fa
:0402a800220300002d
:020000040000fa
:0402ac002203000029
:020000040000fa
:0402b0002203000025
:020000040000fa
:0402b4002203000021
:020000040000fa
:0402b800220300001d
:020000040000fa
:0402bc002203000019
:020000040000fa
:0402c0002203000015
:020000040000fa
:0402c4002203000011
:020000040000fa
:0402c800220300000d
:020000040000fa
:0402cc002203000009
:020000040000fa
:0402d0002203000005
:020000040000fa
:0402d4002203000001
:020000040000fa
:0402d80022030000fd
:020000040000fa
:0402dc0022030000f9
:020000040000fa
:0402e00022030000f5
:020000040000fa
:0402e40022030000f1
:020000040000fa
:0402e80022030000ed
:020000040000fa
:0402ec0022030000e9
:020000040000fa
:0402f00022030000e5
:020000040000fa
:0402f40022030000e1
:020000040000fa
:0402f80022030000dd
:020000040000fa
:0402fc0022030000d9
:020000040000fa
:0403000022030000d4
:020000040000fa
:0403040022030000d0
:020000040000fa
:0403080022030000cc
:020000040000fa
:04030c0022030000c8
:020000040000fa
:0403100022030000c4
:020000040000fa
:0403140022030000c0
:020000040000fa
:0403180022030000bc
:020000040000fa
:04031c0022030000b8
:020000040000fa
:0403200022030000b4
:020000040000fa
:0403240022030000b0
:020000040000fa
:0403280022030000ac
:020000040000fa
:04032c0022030000a8
:020000040000fa
:0403300022030000a4
:020000040000fa
:0403340022030000a0
:020000040000fa
:04033800220300009c
:020000040000fa
:04033c002203000098
:020000040000fa
:040340002203000094
:020000040000fa
:040344002203000090
:020000040000fa
:04034800220300008c
:020000040000fa
:04034c002203000088
:020000040000fa
:040350002203000084
:020000040000fa
:040354002203000080
:020000040000fa
:04035800220300007c
:020000040000fa
:04035c002203000078
:020000040000fa
:040360002203000074
:020000040000fa
:040364002203000070
:020000040000fa
:100400004fc821000e7f24000e018800000000006c
:10041000000020000000e000020032000001200087
:100420002002880014000700880007000000e00098
:1004300003003a00400c22000100200002003700b7
:100440000000200001002000810f70000100320038
:1004500014000700000020000000e000020032004d
:100460000000020000000000c01e020000000000aa
:100470000040da000000fe004440a9008002200095
:100480000000e0000300320000002000a00188000e
:100490004440a800000006008a1f78008b1f7800e7
:1004a0000000060091018800800478000000eb0045
:1004b0001a003700e284440032a0b4009905ba0063
:1004c000e284440032a0b4009906ba00e2844400f9
:1004d00032a0b4000006eb00476fde00fd07b2005b
:1004e000636ce10003003a00ebff07000000eb0043
:1004f0000a003700606ce10004003a00005deb0088
:100500008b05e900fdff3e00040037006168e10053
:10051000010032000086eb000b00070019c7ba008b
:100520001905ba000e04e00003003a000a00e000da
:10053000e0ff3a0000000600fe07b2009e018800be
:100540008a047800f5ff3700395dba008b05e900b1
:100550000c003200295dba008b05e900080032006a
:100560000c00e00003003a00e284440032a0b40032
:10057000f5ff370019ddba008b05e900faff3a00f4
:100580008904e800e184440032a0b40000000600c1
:100590004c0c0400000000003600f800809fbe00f4
:1005a000829fbe00849fbe00869fbe003400f8007c
:1005b00000002000a00188000000fa008460a9006b
:1005c000410307000000e000030032001020020099
:1005d00000000000000000000080fa003400f90074
:1005e0004f03be004f02be004f01be004f00be00d1
:1005f0003600f900004006003600f800809fbe007b
:10060000829fbe00849fbe00869fbe003400f8001b
:1006100000002000a00188000000fa00690e070019
:1006200084e0a9000080fa003400f9004f03be0006
:100630004f02be004f01be004f00be003600f90061
:10064000004006000040da000000fe000000050047
:100650006022b800060220000000d0008180d20095
:100660000482d2008582d2000000a0000202520063
:1006700083825a00030031000202420083824a0052
:100680000000a1000603e900f3ff3a0000000600a5
:100690008001780002003700b15978000201e900ba
:0c06a0000200e000fcff3a000000060031
:020000040000fa
:1006ac0011110000222200003333000044440000ea
:1006bc0055550000666600007777000088880000ba
:1006cc0099990000aaaa0000bbbb0000cccc00008a
:1006dc00dddd0000eeee0000cecd0000acab000086
:1006ec00494400004c4500000000000004000000dc
:020000040000fa
:1006fc001000fa0020079800310798004207980074
:10070c005307980064079800750798006003200051
:10071c00f90a0700000f78001e0078000000e000c6
:10072c000e0032004e00900000004000f20a07005c
:10073c00800078001e007800410898001e007800a8
:10074c00400890000000e00004003a001e00780011
:10075c005e0b07000000eb00000f78001e00780015
:10076c000000e000120032004e0090008000eb0010
:10077c000001eb00821f78009e0378007e0390003e
:10078c00ee0290005e0290000001be00be009000e0
:10079c002e0090000b0007008f87e9001e007800e8
:1007ac006a000700100020001007980002003700b4
:1007bc000080eb00100798001e0090000080fa00eb
:1007cc00000006001400fa0020079800310798007a
:1007dc004207980053079800640798007507980023
:1007ec00060f9800170f98001e089000c008900084
:1007fc00110798001e089000c00890004e01900050
:10080c00f0ff270000004100000040008080400005
:10081c001e089000711098003e0090000000e0004f
:10082c00190032000000eb00000f78000d003700bb
:10083c003e0090001e004000904078001e08900082
:10084c001e0040007a004000014878003e009000f5
:10085c001e004000104078000004e000050032004b
:10086c001e0fe8001e007800f30f5000f0ff36005a
:10087c0001003700000000001e0890008040eb00d3
:10088c0051689800030037001e0890008040eb0070
:10089c00215898007e009000e30f500002003600b3
:1008ac0030002000700798001e089000fe00900099
:1008bc00310898001e0890000080e800b20c070078
:1008cc001e0890006c004000af0c07001e08900042
:1008dc009e089000410098007e009000e4001000fb
:1008ec001e089000610098001e0890009e08900061
:1008fc00110898001e0990006000b80000199800bb
:10090c00111998001e0890008040eb00417098006f
:10091c006e019000ae0090001e009000e50b0700e9
:10092c00800078001e089000010878000e089000e6
:10093c000000e000030032000e0890009e089000ba
:10094c00010878000080fa00000006000200fa009e
:10095c00000f7800580c0700304080000000e800c1
:10096c0030408800004080000000e00007003a00a2
:10097c009e0078000140880030408000e10f50005c
:10098c000d003a00cc0307000b00370060408000dc
:10099c000000e00008003a0000408000b008900021
:1009ac001e00780030089000808f500002003e003e
:1009bc009e00780001408800a04080000000e80004
:1009cc00a04088001e007800b008900050408000c5
:1009dc00808f5000030036001e0078003008900015
:1009ec00504088001e81e8001e00780030089000fe
:1009fc006a00b9008000780040c3210000804000ec
:100a0c0082007800670c0700380c070060408000fb
:100a1c000000e0000900320000408000b0089000a7
:100a2c001e00780030089000808f500003003100c9
:100a3c001020020000000000000000000080fa00fe
:100a4c00000006000c00fa004007980051079800bf
:100a5c000000eb00000f78008e0107004140800081
:100a6c00110798004e009000900078005e009000f6
:100a7c0000804000200798004e0090009000780005
:100a8c001e009000808f50000c0036004e0090002d
:100a9c00900078002e009000808f500012003600dd
:100aac00ae0090001e009000808f50000e003600ab
:100abc0010002000000f78000b0037004e00900053
:100acc00900078002e009000808f500004003e00b3
:100adc00ae0090001e009000808f50000200360087
:100aec0010002000000f78004e009000ae00900027
:100afc00010878001e0078000000e00005003200bc
:100b0c00ae0090001e009000008050008000eb00b2
:100b1c00bb05070065010700300798003e009000f8
:100b2c000000e00003003a0010200200000000006a
:100b3c00000000000080fa00000006000400fa002b
:100b4c00100798000000eb00000f78001e009000ca
:100b5c000000e000060032004e0107008000eb00b0
:100b6c001e009000a605070050010700000f78003a
:100b7c001e0078000000e00003003a001020020084
:100b8c0000000000000000000080fa0000000600d9
:100b9c000c00fa0040079800510798000000eb0089
:100bac00000f78005e009000e30f5000020036004a
:100bbc003000200050079800bf0b07004e0090003b
:100bcc000000e00002003a00004080000100370005
:100bdc004e009000100798001e009000b008900086
:100bec0021079800ae0090005e009000808f5000ae
:100bfc0048003200de0090002e009000808f5000e4
:100c0c000c003600004080009e009000808f500049
:100c1c000e00320000408000b00890005e00900092
:100c2c00808f500009003e0010002000000f78005b
:100c3c0006003700004080009e009000808f50001e
:100c4c0002003a0010002000000f78001e009000f7
:100c5c00b0089000310798001e009000de00900054
:100c6c00310898001e009000600090000000e00029
:100c7c00040035005e009000e40010001e0090009f
:100c8c00610098001e009000500190003e00900002
:100c9c006a00b9008000780040c321000080400049
:100cac00800f510015003a001e0090000080e800f3
:100cbc000c0c07001e009000b00890005040800003
:100ccc00808f5000030036001e009000300890000a
:100cdc00504088001e0090000081e8001e0090002b
:100cec00300890006a00b9008000780040c32100f1
:100cfc000080400082007800aa0b07001e007800dc
:100d0c000000e00003003200102002000000000090
:100d1c0000000000750b07000080fa0000000600c0
:100d2c000400fa0010079800630b07001e009000e7
:100d3c000000e00002003a00004080000100370093
:100d4c001e009000000f78001e80e800e50b0700e5
:100d5c001e007800200890000000e0000300320024
:100d6c009e0078006c804000de0b07001e80e800bf
:100d7c0080007800a0c721008a0b07001e007800b5
:100d8c0040709000e14f500003003a001e007800c4
:100d9c008040eb0041709800540b070060408000cd
:100dac000000e00003003200430b0700e1020700e3
:100dbc004e0b0700004080009e007800808f500092
:100dcc000e003a00604080000000e0000400320099
:100ddc001020020000000000000000000700370097
:100dec00d1e3800030408000808f500002003a0038
:100dfc000028ef00010037009f0107000080fa0077
:100e0c00000006000600fa00200798000000eb0026
:100e1c00000f7800ae009000110798001e009000a3
:100e2c00d0009000a0c72100808f50000b003a002a
:100e3c001e009000a008900000c72100808f500079
:100e4c00060032001e009000200890000000e00018
:100e5c0002003a0010002000000f78001e007800fd
:100e6c000080fa00000006000400fa001007980049
:100e7c009e009000010f7800004080009e007800da
:100e8c00808f5000250032001e0078000000e0002a
:100e9c0022003200080b07001e007800d9ff070063
:100eac000000e0001c0032001e80e8008d0b0700e3
:100ebc001e007800b008900050408000808f5000d9
:100ecc00030036001e007800300890005040880067
:100edc001e81e8001e007800300890006a00b900fe
:100eec008000780040c32100008040008200780020
:100efc002c0b07001e007800b0089000004080000a
:100f0c0030089000808f5000030039001020020040
:100f1c000000000000000000f40a07000080fa0046
:100f2c00000006000800fa00300798000000eb00f3
:100f3c00000f7800be009000110798000000eb0035
:100f4c00200798001e009000aeff07000000e00094
:100f5c0026003200d04080000000e0001e003a0065
:100f6c001e009000b00890000040800030089000f7
:100f7c00808f50000200390010002000000f780014
:100f8c001e0090000080e800560b07001e00900029
:100f9c00b008900050408000808f50000300360055
:100fac001e00900030089000504088001e009000f9
:100fbc000081e8001e009000300890006a00b90023
:100fcc008000780040c3210000804000820078003f
:100fdc00f40a0700050037001e0090006c0040006a
:100fec008000780000c72100ee0a07001e00780080
:100ffc000080fa00000006000200fa008581200043
:10100c000002eb008001eb00220820006137280071
:10101c00c0c42000b6fd0700000f78001e00780049
:10102c00e10f50000d003a0011028000f0f12f008a
:10103c00008060000050a00010028800000000003a
:10104c00000000000080eb00b04088001000200081
:10105c00604088000828ef005e0a07000080fa0054
:10106c00000006000000fa0011028000f0f12f00d1
:10107c00008060000050a0001002880000000000fa
:10108c00000000000c28ef00740a07000080fa0032
:10109c00000006000000fa00d04080000000e800cc
:1010ac00d04088000080fa00000006000600fa001c
:1010bc000000eb00000f78000000eb001007980018
:1010cc007d0a0700d04080000000e900d040880075
:1010dc00d04080000000e00045003a003040800025
:1010ec000000e0004200320021003700b0e3800035
:1010fc0030009000000f78009e0078006c8040005b
:10110c00f80a07001e80e800f60a07001e007800a7
:10111c00b008900050408000808f500003003600d3
:10112c001e00780030089000504088001e81e800b6
:10113c001e007800300890006a00b900800078002a
:10114c0040c321000080400082007800950a07000f
:10115c001e007800b008900000408000300890001d
:10116c00808f500002003900100020008040880061
:10117c0080e380000000e000dcff3a001e007800f5
:10118c000000e00001003200ea010700714080001d
:10119c00210798002e0090000000e0000c003200a7
:1011ac00460007000000e0000200320010002000a2
:1011bc00804088002e0090000000e9002007980075
:1011cc002e0090000000e000f5ff3a000e28ef0022
:1011dc00804080000000e00005003200100020007c
:1011ec001007980010200200000000000000000012
:1011fc003e0a07001e0090000080fa000000060066
:10120c000200fa002c0a070041408000010f780010
:10121c00360a07001e0078000080fa000000060065
:10122c000400fa000000eb00000f78004140800041
:10123c00110798001e0090000080fa0000000600c4
:10124c000000fa00304080000080fa000000060028
:10125c000400fa00100798001e0090000000e00047
:10126c0002003a0000408000010037001e00900090
:10127c00000f78009e0078007a8040000080fa0011
:10128c00000006000400fa00100798000000eb00b4
:10129c00000f78007fff0700714080001e00900057
:1012ac00008040007040880080ff0700000f78002d
:1012bc001e0078000080fa00000006000a00fa0008
:1012cc000000eb00000f7800d04080000000e00030
:1012dc0063003a00404080000000e80010079800ce
:1012ec009e009000414088001e0090000000e0002d
:1012fc000a003a001140800021079800204080002d
:10130c0010408800ae009000214088009040800082
:10131c000000e8009040880086010700b040800083
:10132c009e009000808f50003c0039000100370077
:10133c000000000010408000100078000000e00069
:10134c0003003a000080eb00b04088003300370007
:10135c001040800030009000300090003007980062
:10136c003e00900090009000410798009e00900075
:10137c004e009000808f500003003100ce00900092
:10138c00b1408800250037003e0090000080e80046
:10139c00540a07003e009000200890000000e00076
:1013ac00030032003e0090006c0040004d0a070024
:1013bc003e009000b008900050408000808f50009c
:1013cc00030036003e00900030089000504088002a
:1013dc003e0090000081e8003e0090003008900034
:1013ec006a00b9008000780040c3210000804000f2
:1013fc0082007800eb0907003e009000b0089000d6
:10140c000040800030089000808f5000c8ff3900e9
:10141c0010002000000f7800c6ff3700004080004d
:10142c00300890006a00b9008000780040c32100a9
:10143c000080400010007800e10f500002003600e0
:10144c0010002000000f7800804080000000e000b9
:10145c000600320010002000000f78000300370057
:10146c00704080000000e800704088001e0078008a
:10147c000080fa00000006000400fa00d040800052
:10148c000000e000030032001000200080408800c3
:10149c00290037001028ef0051408000010f780020
:1014ac00010037001e0fe9001e0078006a00b90029
:1014bc008000780040c321000080400010007800bc
:1014cc000000e000f7ff32001e0078006a00b9004f
:1014dc008000780040c32100008040001007980075
:1014ec001e00900010009000900090001e009000d4
:1014fc00110098001e009000900090001e009000bb
:10150c0064004000808f500005003a001e009000df
:10151c0010009000900090001e00900011009800a8
:10152c001e009000100090003000900000408800d9
:10153c009e007800514088000080fa0000000600f0
:10154c000400fa00000f780011079800004080009a
:10155c006c004000800078001e007800af09070086
:10156c00110020001e009000250307000080fa00e7
:10157c00000006000600fa00000f78001107980022
:10158c0022079800004080009e00900001f0a0000f
:10159c0061009800004080006c00400080007800e2
:1015ac001e0078007f090700110020002e0090001b
:1015bc00130307000080fa00000006000600fa0082
:1015cc00200798002e009000300090003000900012
:1015dc00100798001e0090006c004000c109070025
:1015ec00d04080000000e00016003a001e00900081
:1015fc000080e800bb0907001e009000b0089000b6
:10160c0050408000808f5000030036001e00900078
:10161c0030089000504088001e0090000081e800c7
:10162c001e009000300890006a00b900800078001d
:10163c0040c3210000804000820078005909070057
:10164c00050037001e0090006c0040008000780000
:10165c0000c72100530907001e009000b00890003d
:10166c000040800030089000808f5000050036004c
:10167c0010002000000f780010002000804088002f
:10168c00020037000000eb00000f78001e0078000d
:10169c000080fa00000006000600fa00100798000f
:1016ac00210798002e0090008000780001f0a00027
:1016bc001e009000010878001e0090003000900081
:1016cc00000f78001e009000860907001e80e800bd
:1016dc00840907001e007800b0089000504080007c
:1016ec00808f5000030036001e00780030089000f8
:1016fc00504088001e81e8001e00780030089000e1
:10170c006a00b9008000780040c3210000804000ce
:10171c0082007800230907001e007800b0089000b2
:10172c000040800030089000808f5000020036008e
:10173c0010002000804088000080fa0000000600a5
:10174c000200fa00000f7800db08070091408000cf
:10175c001e00780001087800414080001e007800cf
:10176c0011009800e10807000080fa000000060054
:10177c000200fa00000f7800914080001e007800f3
:10178c0001087800414080001e007800110098008c
:10179c000080fa00000006000a00fa0030079800ea
:1017ac0041079800c40807004140800011079800c9
:1017bc003e009000100090009e00900000805000b1
:1017cc00200798004e00900010007800e10f4000b8
:1017dc0003003a000000eb00000f780022003700f5
:1017ec003e0090009000780090408000808f500068
:1017fc00080032003e009000900090001e00900007
:10180c00808f500003003e0010002000000f780075
:10181c00150037004e009000900078002e009000cc
:10182c00808f50000b0036004e0090009000780026
:10183c002e009000808050004e009000010878002f
:10184c003e009000caff07000000eb00000f78007c
:10185c00050037004e0090008000eb000108780076
:10186c0010002000000f7800a00807001e00780070
:10187c000080fa00000006000000fa0010002000b2
:10188c00804088000080fa00000006000200fa0088
:10189c00000f780024000700a0e18000e10f500049
:1018ac0003003600102002000000000000000000c1
:1018bc008a090700f7ff37000200fa000000eb006e
:1018cc00000f7800070037001e0078006a00b9008e
:1018dc008000780040c32100008040009108070080
:1018ec001e0fe8001e007800e30f5000f6ff3600d4
:1018fc00c0c521008b08070060c6210089080700bd
:10190c0000c7210087080700a0c721008508070031
:10191c00c0c521001040880060c62100204088000e
:10192c000080fa00000006000000fa000080fa00b7
:10193c00000006000200fa00104080001000780041
:10194c000000e00003003a000080eb00b04088008b
:10195c0007003700104080003000900030009000ed
:10196c00000f78001e00780010009000b040880036
:10197c000080fa00000006000200fa00004080001f
:10198c00e0009000010f78000040800001408000d2
:10199c00b1089000e4801000610098001e007800ef
:1019ac000080fa00000006000800fa0020079800ea
:1019bc003107980040080700004080009018900004
:1019cc0000189000e00f5000e08f58000c003a0017
:1019dc000040800011c0b300417098003e009000a0
:1019ec000000e00006003200110020003e009000d4
:1019fc00030207001020020000000000000000009d
:101a0c003a0807002c0807000040800000199000dd
:101a1c0090199000028fbe001e00be00e00f500017
:101a2c00e08f58000f0032002e0090000000e00004
:101a3c0005003200024080006000b80000199800d8
:101a4c001119980007003700024080000082eb005b
:101a5c008082eb003e004200ae804a0000199800e4
:101a6c0011199800004080008040eb0041709800f4
:101a7c001e0807001e00be000080fa0000000600d1
:101a8c000e00fa0010079800210798003207980002
:101a9c00430798005407980065079800060807004c
:101aac000040800040709000e24f50002200320055
:101abc000440800004199000941990001e009000be
:101acc00ae0090000080ea008180ea00820278007b
:101adc0003017800800178000100780083826200a5
:101aec00000061008000eb00c000dd000000200061
:101afc000001be006128b8000001710081817100f5
:101b0c00021a9800131a98000040800011c0b3000c
:101b1c00417098006e0090000000e000060032005a
:101b2c00110020006e009000b5010700102002008b
:101b3c000000000000000000ec070700de070700b3
:101b4c005e0090000000e0000500320000408000c4
:101b5c0090189000001890005e0190000089be0063
:101b6c000040800040709000e24f500003003200b3
:101b7c000000eb00000f78001800370004408000d4
:101b8c0004199000941990003e009000ce00900033
:101b9c000080ea008180ea0082027800030178006c
:101bac0080017800010078008382620000006100ef
:101bbc008000eb00c000dd00000020000001be0032
:101bcc006128b8000001710081817100021a98002f
:101bdc00131a980010002000000f780000408000bd
:101bec008040eb0041709800c00707001e00780091
:101bfc000080fa00000006001000fa003007980080
:101c0c0042079800530798006107980074079800e2
:101c1c0010002000000f7800be0090001107980003
:101c2c00a50707007e0090000000e00005003200d0
:101c3c001e00900090189000001890007e019000fb
:101c4c000089be001e009000407190004247980031
:101c5c001e00900021c0b300417098006e009000ef
:101c6c00e20f500017003200e20f500005003e005a
:101c7c000000e0002e003200e10f500006003200a0
:101c8c002c003700e30f500017003200e40f500017
:101c9c001b003200270037001e0090000019900036
:101cac00901990004e009000de0090000000710032
:101cbc00818071001e019000001998001119980084
:101ccc001c0037001e009000901890000018900027
:101cdc0061004000e08048001e019000001998004f
:101cec0011199800130037001e0090004e0190004f
:101cfc00de01900002189800131898000d003700b0
:101d0c004e409000e24f5000060032001e00900042
:101d1c004e019000de0190000218980013189800f4
:101d2c00040037000000eb00000f780001003700c2
:101d3c00000000004e409000e14f50001e003a00a1
:101d4c001e0090000080e800e60707001e009000cf
:101d5c00b008900050408000808f50000300360087
:101d6c001e00900030089000504088001e0090002b
:101d7c000081e8001e009000300890006a00b90055
:101d8c008000780040c32100008040008200780071
:101d9c00840707001e009000b008900000408000ef
:101dac0030089000808f5000030036001020020095
:101dbc0000000000000000004c0707001e00780027
:101dcc000080fa00000006001400fa00400798009a
:101ddc00520798006307980071079800040f980049
:101dec00150f980010002000000f7800ce00900016
:101dfc00110798000000eb00200798000e089000d7
:101e0c000000e000050032001e00900090189000c9
:101e1c00001890000e0990000089be001e00900072
:101e2c0040719000624798001e00900021c0b300e2
:101e3c00417098007e009000e20f500017003200b5
:101e4c00e20f500005003e000000e0002e003200c2
:101e5c00e10f5000060032002c003700e30f500059
:101e6c0017003200e40f50001b003200270037002f
:101e7c001e00900000199000901990005e009000d8
:101e8c00ee00900000007100818071001e01900036
:101e9c0000199800111998001c0037001e009000c2
:101eac00901890000018900061004000e0804800fd
:101ebc001e019000001998001119980013003700aa
:101ecc001e0090005e019000ee0190000218980038
:101edc00131898000d0037006e409000e24f500030
:101eec00060032001e0090005e019000ee01900092
:101efc000218980013189800040037000000eb003b
:101f0c00000f780001003700000000006e409000c8
:101f1c00e14f50002c003a00d04080000000e0005f
:101f2c0016003a001e0090000080e8006d070700c4
:101f3c001e009000b008900050408000808f500030
:101f4c00030036001e0090003008900050408800be
:101f5c001e0090000081e8001e00900030089000e8
:101f6c006a00b9008000780040c321000080400066
:101f7c00820078000b070700050037001e00900058
:101f8c006c0040008000780000c7210005070700a6
:101f9c001e009000b00890000040800030089000b7
:101fac00808f5000080036001e0890000000e000f2
:101fbc00030032001e089000110020000108780078
:101fcc0010002000804088001e0078000080fa007d
:101fdc00000006000a00fa0030079800410798003c
:101fec00be009000010f78000000eb001007980075
:101ffc001e007800c0709000414798001e007800c9
:10200c0021c0b300417098001e0078009018900019
:10201c000018900061004000e08048001e0178002c
:10202c0000199800111998004e409000e14f500093
:10203c002a003a00d04080000000e00014003a0072
:10204c001e80e800270707001e007800b0089000eb
:10205c0050408000808f5000030036001e00780036
:10206c0030089000504088001e81e8001e00780067
:10207c00300890006a00b9008000780040c321004d
:10208c000080400082007800c6060700050037007b
:10209c009e0078006c8040008000780000c7210012
:1020ac00c00607001e007800b008900000408000b9
:1020bc0030089000808f5000080036004e009000d1
:1020cc000000e000030032004e00900011002000e0
:1020dc000108780010002000804088000080fa0081
:1020ec00000006000600fa00200798002e00900061
:1020fc000000e00002003a000040800001003700c0
:10210c002e009000100798006b0607001e00900030
:10211c0040709000e24f500006003a001e00900004
:10212c008040eb004170980010002000000f7800f8
:10213c00020037000000eb00000f78006b06070070
:10214c001e0078000080fa00000006000c00fa0067
:10215c003007980042079800530798003e00900003
:10216c000000e00002003a0000408000010037004f
:10217c003e009000000f78004f06070000408000e2
:10218c0000199000901990001207980023079800ee
:10219c001e00780000199000901990004e009000dd
:1021ac00de0090000080ea008180ea0002027800e4
:1021bc0003017800800178000100780003026200be
:1021cc00000061008000eb00c000dd00000020007a
:1021dc000001be006120b800000171008181710016
:1021ec001e00780002189800131898003f0607008c
:1021fc001e009000ae0090000080fa000000060067
:10220c000800fa0020079800310798004140800030
:10221c00010f7800004080000080e800b106070044
:10222c002e009000e10f400009003a003e009000a3
:10223c000000e00006003200004080000080e80052
:10224c0080007800a0c72100560607001800370050
:10225c002e0090001e0040001007980000408000e7
:10226c009e009000110098001e0090009e0f5000e0
:10227c0005003100004080008080e8002040800094
:10228c00660607000a003700004080008080e800e6
:10229c001040800061060700b04080009e00900056
:1022ac00808f5000020031009e009000b1408800e9
:1022bc000080fa00000006000600fa0010079800e3
:1022cc00210798009e009000010f7800fa05070086
:1022dc001e007800100178001e007800f0089000b5
:1022ec001e007800001090000088b90000007800f3
:1022fc00800041001e007800210098001e0078002c
:10230c008000eb00610898001e00780090007800b7
:10231c001e007800110098001e0078001001780053
:10232c001e007800700890008000e9001e00780004
:10233c00001090000088b900000078008000410077
:10234c001e007800310098001e00780080c0eb0061
:10235c00216098001e00780080c0eb00316098006e
:10236c002e0090000000e0000d003a001e007800e6
:10237c00400090000000e0000f0032009e0078004a
:10238c00688040008dfc07000000e0000a0032006d
:10239c0010200200000000000000000006003700c2
:1023ac009e00780068804000de0507009e007800e3
:1023bc0072804000db050700cc05070010002000f0
:1023cc000080fa00000006000c00fa0030079800ac
:1023dc0041079800224f9800be0090004e009000dc
:1023ec000088b90000007800000f7800410220003e
:1023fc001e804000c0030700100798001e009000cc
:10240c000000e0000b0032009e00900021079800b5
:10241c002e0090004002b000200798001e02900091
:10242c00ae4990002e019000ce0090003e0090002e
:10243c00030007001e0090000080fa000000060058
:10244c000a00fa00000f7800110798002207980084
:10245c0063479800440798001e0090000000e000bd
:10246c0004003a00ce0090004e0090000108780065
:10247c0003003700ae0090004e0090000108780079
:10248c004e0090009e007800710898004e0090005d
:10249c009e00900001109800110020004e0090004a
:1024ac0085ff07000080fa00000006001200fa0009
:1024bc00500798006107980072079800030f980066
:1024cc000000eb00000f7800de0090001107980070
:1024dc000100370000000000770507001e00900087
:1024ec00e00890001e00900070089000808f500053
:1024fc00030039000e089000e20f50001b003a0058
:10250c000e099000ee0090001e009000890207005a
:10251c00200798001e009000100890000000e000ba
:10252c00090032001e0090007200400023fc0700de
:10253c000000e0000a003200102002000000000041
:10254c0000000000060037002e0090000000e000a4
:10255c000300320010200200000000000000000008
:10256c0062050700100020003d0037007e0090003f
:10257c000000e00003003a005c0507000000eb00df
:10258c00370037001e0078000000e00004003a001d
:10259c006600470076fc070010002000000f780052
:1025ac0052050700bbfa0700430507001e00900008
:1025bc0020609000e14f400003003a001e009000a4
:1025cc008040eb00216098001e009000306090006d
:1025dc00e14f400003003a001e0090008040eb00e9
:1025ec003160980041050700ee0047006600470087
:1025fc0069fc07000000e00015003a001e00900086
:10260c00190307000000e0000d003200fe009000ee
:10261c001e00900068004000c9fb07001e009000df
:10262c00b9020700a1fa07000000e000a9ff3a0078
:10263c00102002000000000000000000a6ff370080
:10264c001e009000b002070098fa0700a2ff3700a6
:10265c001e009000ac02070094fa07000000eb008b
:10266c000080fa00000006001200fa0050079800e3
:10267c006107980072079800030f9800de00900025
:10268c00110798000000eb00200798001e00900036
:10269c00e00890001e00900070089000808f5000a1
:1026ac00030039000e089000e20f500025003a009c
:1026bc001e009000b0609000614798001e009000d2
:1026cc00e0089000410798000e099000ee00900081
:1026dc001e009000170207006e409000e14f400072
:1026ec0010003a001e009000100890000000e0005e
:1026fc00110032001e00900072004000affb07007a
:10270c000000e0000c0032007e0090000000e000b1
:10271c00090032007e0090001100200001087800b2
:10272c00050037006e4090000040e80080407800c3
:10273c001e0090003160980010002000000f7800ff
:10274c00020037000000eb00000f78001e0078003c
:10275c000080fa00000006000e00fa0050079800f6
:10276c0061079800de009000110798000000eb0054
:10277c00200798001e009000e00890003107980098
:10278c001e009000f00890003e009000808f5000da
:10279c00220036001e009000b0609000014f98009f
:1027ac003e0090008000e8001e0090006108980038
:1027bc000e489000e14f400010003a001e009000bf
:1027cc00100890000000e000110032001e00900084
:1027dc007200400079fb07000000e0000c003200a2
:1027ec006e0090000000e000090032006e009000c6
:1027fc001100200001087800050037000e489000f9
:10280c000040e800804078001e0090003160980085
:10281c0010002000000f7800020037000000eb00d1
:10282c00000f78001e0078000080fa0000000600ff
:10283c001000fa0050079800610798007207980082
:10284c000000eb00000f7800de00900011079800ec
:10285c0003003700000000000100370000000000fa
:10286c00950407001e009000e008900021079800d6
:10287c002e0090000000e00016003200ee009000e8
:10288c001e009000fe0107002e0090008000e90061
:10289c001e009000610898001e00900040009000ff
:1028ac000000e000080032001e00900068004000ac
:1028bc0042fb07000000e000030032001020020081
:1028cc000000000000000000880407001000200039
:1028dc00410037007e0090000000e00003003a0049
:1028ec00820407000000eb003b0037001e0078005c
:1028fc000000e00004003a00660047009cfb070063
:10290c0010002000000f780078040700e1f90700a0
:10291c00690407001e00900020609000e14f400009
:10292c0003003a001e0090008040eb0021609800ec
:10293c001e00900030609000e14f400003003a0010
:10294c001e0090008040eb00316098006704070087
:10295c00ee004700660047008ffb07000000e00018
:10296c0015003a001e0090001f0207000000e00056
:10297c000d003200fe0090001e009000720040001e
:10298c00effa07001e009000df010700c7f90700ef
:10299c000000e000afff3a00102002000000000031
:1029ac0000000000aeff37001e009000d6010700ab
:1029bc00bef90700aaff37001e009000d2010700e5
:1029cc00baf907001e009000070207000000e000a3
:1029dc00a2ff32000000eb000080fa0000000600ad
:1029ec000e00fa0050079800610798000000eb00f9
:1029fc00000f7800de0090001107980003003700ec
:102a0c000000000001003700000000002a0407004d
:102a1c001e009000e0089000210798002e00900006
:102a2c000000e000130032002e0090008000e9004e
:102a3c001e009000610898001e009000400090005d
:102a4c000000e000080032001e009000680040000a
:102a5c00dafa07000000e000030032001020020048
:102a6c0000000000000000002004070010002000ff
:102a7c00410037006e0090000000e00003003a00b7
:102a8c001a0407000000eb003b0037001e00780022
:102a9c000000e00004003a006600470034fb070029
:102aac0010002000000f78001004070079f90700cf
:102abc00010407001e00900020609000e14f4000d0
:102acc0003003a001e0090008040eb00216098004b
:102adc001e00900030609000e14f400003003a006f
:102aec001e0090008040eb0031609800ff0307004f
:102afc00ec0047006600470027fb07000000e000e1
:102b0c0015003a001e009000b70107000000e0001d
:102b1c000d003200ee0090001e009000720040008c
:102b2c0087fa07001e009000770107005ff9070085
:102b3c000000e000b2ff3a0010200200000000008c
:102b4c0000000000b1ff37001e0090006e0107006e
:102b5c0056f90700adff37001e0090006a01070010
:102b6c0052f907001e0090009f0107000000e000d2
:102b7c00a5ff32000000eb000080fa000000060008
:102b8c001200fa006007980071079800020f980075
:102b9c000000eb00000f7800ee0090001107980089
:102bac0003003700000000000100370000000000a7
:102bbc00c10307001e009000e00890002107980058
:102bcc002e0090000000e000180032001e00900063
:102bdc00b000900031079800fe0090001e0090009d
:102bec00270107001e009000be00900031009800e5
:102bfc001e009000100890000000e0000800320059
:102c0c001e009000720040006cfa07000000e0000b
:102c1c000300320010200200000000000000000041
:102c2c00b203070010002000410037000e0890008e
:102c3c000000e00003003a00ac0307000000eb00ca
:102c4c003b0037001e0078000000e00004003a0052
:102c5c0068004700c6fa070010002000000f78003b
:102c6c00a20307000bf90700930307001e00900056
:102c7c0020609000e14f400003003a001e009000dd
:102c8c008040eb00216098001e00900030609000a6
:102c9c00e14f400003003a001e0090008040eb0022
:102cac003160980091030700f0004700680047006e
:102cbc00b9fa07000000e00015003a001e00900071
:102ccc00490107000000e0000d0032008e08900062
:102cdc001e0090007200400019fa07001e009000c0
:102cec0009010700f1f807000000e000adff3a0011
:102cfc00102002000000000000000000acff3700b4
:102d0c001e00900000010700e8f80700a8ff37003c
:102d1c001e009000fc000700e4f807001e00900065
:102d2c00310107000000e000a0ff32000000eb00c2
:102d3c000080fa00000006001000fa00500798000e
:102d4c006107980072079800de0090001107980048
:102d5c000000eb00200798001e009000e008900097
:102d6c00310798003e0090000000e0002500320082
:102d7c001e009000a0609000014f9800ee009000a3
:102d8c001e009000be0007003e0090008000e9008d
:102d9c001e009000610898000e489000e14f400022
:102dac0010003a001e009000400090000000e0006f
:102dbc00110032001e00900068004000fff907006f
:102dcc000000e0000c0032007e0090000000e000eb
:102ddc00090032007e0090001100200001087800ec
:102dec00050037000e4890000040e8008040780055
:102dfc001e0090002160980010002000000f780049
:102e0c00020037000000eb00000f78001e00780075
:102e1c000080fa00000006000c00fa004007980041
:102e2c0051079800ce009000110798000000eb00ad
:102e3c00200798001e009000600890000000e00041
:102e4c000c0032001e009000b0009000310798007a
:102e5c00de0090001e009000890007001e0090000c
:102e6c00be0090003100980010002000000f780088
:102e7c00020037000000eb00000f78001e00780005
:102e8c000080fa00000006000400fa001007980009
:102e9c00090307001e009000e0089000010f780065
:102eac00120307001e0078000080fa0000000600e4
:102ebc000600fa0020079800ae009000010f780081
:102ecc00fd0207001e007800f00890001e0078003c
:102edc006008900000805000100798000303070062
:102eec001e0090000080fa00000006000600fa00a8
:102efc0020079800ae009000010f78001e007800ab
:102f0c00e0089000110798001e0090000080fa0065
:102f1c00000006000400fa00100798009e009000c4
:102f2c00010f78001e007800680107000080fa008d
:102f3c00000006000a00fa002007980031079800ec
:102f4c00420798000000eb00100798002e0090003c
:102f5c00e0089000010f78002e0090000010900007
:102f6c000000e000400032004e0090000000e00045
:102f7c0019003a002e009000801090002e00900056
:102f8c001000900001017800be009000bdf5070014
:102f9c002e009000900090002e00900000109000e9
:102fac00808040002e009000110098002e009000b0
:102fbc00900090002e00900020009000808f500018
:102fcc00290039002e009000900078002e0090000f
:102fdc0011009800240037002e0090008010900003
:102fec002e0090003000900001017800be0090008f
:102ffc00a4f507002e009000b00090002e00900069
:10300c00001090000000ea00808040002e0090002c
:10301c00310098002e009000b00090002e0090001f
:10302c0010007800808f5000080031002e009000b6
:10303c00a00090002e009000001090000000ea000c
:10304c00808040002e009000310098004e009000cf
:10305c00e20f500004003a001e0078000000e0006f
:10306c00010032001e0fe9009e00e8002e009000c7
:10307c00610898001e0090000080fa000000060015
:10308c000400fa00000f7800110798001e00780069
:10309c00001090000000e000190032001e007800c3
:1030ac00b00090001e00780000109000808040005e
:1030bc001e007800310098001e007800b0009000cf
:1030cc001e00780020009000808f50000400390012
:1030dc001e007800900078001e00780031009800e7
:1030ec001e007800801090001e00780030009000c8
:1030fc0001017800800078001e00900061f5070047
:10310c000080fa00000006000400fa001007980086
:10311c00690207001e009000b0609000014f78001b
:10312c000b0037001e009000100890000000e0001b
:10313c000b0032001e009000720040001ff90700c7
:10314c000000e00001003200cbf907001e4fe9003f
:10315c001e4078000004e000f2ff3c000100370044
:10316c00000000001e00900080c0eb003160980051
:10317c005e020700500207001e009000a060900045
:10318c00114798000d0037001e0090004000900081
:10319c000000e0000d0032001e00900068004000ae
:1031ac0006f907000000e00001003200b2f9070048
:1031bc001e4090000040e900104798001e4090000f
:1031cc000004e000f0ff3c000100370000000000ac
:1031dc001e00900080c0eb002160980043020700a5
:1031ec000080fa00000006000400fa0010079800a6
:1031fc00310207001e009000600890000000e00003
:10320c0003003a0010002000000f78000200370085
:10321c000000eb00000f7800340207001e0078005d
:10322c000080fa00000006000600fa002007980053
:10323c00ae009000110798001e00900060089000ee
:10324c000000e00003003a0010002000000f78009e
:10325c00020037000000eb00000f78001e00780021
:10326c000080fa00000006000400fa001007980025
:10327c00110207001e009000e00890001e00900054
:10328c0070089000808f500003003a00100020005e
:10329c00000f7800020037000000eb00000f7800f0
:1032ac00120207001e0078000080fa0000000600e1
:1032bc000600fa0020079800ae0090001107980055
:1032cc001e009000e00890001e0090007008900016
:1032dc00808f500003003a0010002000000f78008f
:1032ec00020037000000eb00000f78001e00780091
:1032fc000080fa00000006000a00fa00400798005f
:10330c000000eb002007980062f7070000418000e6
:10331c000000e00001003a00a200070051418000cb
:10332c004e009000008060000000e00063003a0056
:10333c004e0090000000e0000d003200e01b840005
:10334c00ce00900000804000400798004e00900096
:10335c0061006000004078000004e00004003200ce
:10336c004e0090000000a1000080e800400798008b
:10337c004e0090000000e000500032001041800030
:10338c00ce009000808f50004c003e00c081200089
:10339c0010079800e1408000010f7800040037000e
:1033ac009e007800110798001e007800100f78001e
:1033bc001e007800900090004e009000808f50000e
:1033cc00040031001e007800100078000000e000be
:1033dc00f3ff3a00004180009e007800808f50007f
:1033ec00360032001e00900090007800e01b840034
:1033fc0000804000200798001e00780090007800a4
:10340c001e009000010878001e00780090009000cb
:10341c004e00900080805000e01b840000004000b3
:10342c00808f50000e0036004e0090001e004000b1
:10343c00300798001e007800900090004e0090001d
:10344c00808050003e009000110098001e00780013
:10345c00ce009000110098003e00900088000700fc
:10346c00114180001e007800100090000080500078
:10347c00104188001141800020418000808f500055
:10348c000200310010418000204188001e007800ad
:10349c009000900050418000810070001e00780068
:1034ac00110098001e0078008000eb0001087800e5
:1034bc00304180000000e80030418800fbf6070036
:1034cc002e0090000080fa00000006000600fa00b2
:1034dc0020079800ae009000010f78002e0090009d
:1034ec000000e00022003200e01b84000000ea0033
:1034fc001e0f40009e007800110798001e009000df
:10350c009000900050418000008060000000e000be
:10351c00170032001e009000100078000000e00040
:10352c0013003a001e009000900090005041800063
:10353c000080ea00808060001e009000110098005e
:10354c00d4f607001e0090009000900010418000ff
:10355c0000804000104188001e00900048000700c9
:10356c00404180000000e80040418800cff6070091
:10357c000080fa00000006000000fa0010418000f4
:10358c000080fa00000006000000fa0020418000d4
:10359c000080fa00000006000000fa000080fa002b
:1035ac00000006000800fa000040210010079800f7
:1035bc0040832000000f78001e007800610060003e
:1035cc00004078000004e000070032001e0fe80005
:1035dc001e00a1001e0090009e00500040832000a1
:1035ec0000804000100798009e007800210798008a
:1035fc002e009000e04088001e28ef00ae009000e6
:10360c001e009000008f4000e01b84001e0f100075
:10361c001e00a1001e0078000041880000418000bf
:10362c008000eb0011009800004180008000eb004e
:10363c0001087800ae009000310798003e00900021
:10364c009e0010003e009000110098000141800087
:10365c003e009000010878003e00900010009000a1
:10366c00204188003e00900010009000104188001e
:10367c0000002800504188000080fa00000006007d
:10368c000600fa0020079800c0812000000f780087
:10369c00020037001e007800100f78001e00780022
:1036ac00900078002e009000808f5000f9ff3900b8
:1036bc009e007800110798001e0078001000900002
:1036cc009e009000808040002e009000808f500063
:1036dc0009003a001e007800900090002e00900027
:1036ec0010009000808040001e00780011009800af
:1036fc009e00780021079800ae00900011079800fa
:10370c002e009000100090009e00900080804000e1
:10371c001e00780010007800808f500017003a00cf
:10372c001e0078009000780000418000808f5000cf
:10373c000e0032002e009000900090001e007800c9
:10374c001000780010009000808040002e00900047
:10375c00110098001e00780010007800900078008e
:10376c002e0090000108780008003700014180000d
:10377c002e00900001087800040037001e0078002d
:10378c00900078002e009000010878002e00900028
:10379c009e007800808f5000030032001e007800dd
:1037ac00ae009000010878000080fa0000000600ce
:1037bc000a00fa00400798000000eb001007980080
:1037cc000000eb00200798000080eb003007980009
:1037dc0030f60700e1408000010f78001e007800f1
:1037ec000000e000190032001e0090000000e8000c
:1037fc00100798001e007800900090002e0090009a
:10380c00808f5000030036001e007800900090005e
:10381c00210798001e007800900090003e00900058
:10382c00808f5000030031001e0078009000900043
:10383c00310798001e007800100f780000418000be
:10384c009e007800808f5000e7ff3a0017f60700c3
:10385c004e009000ae009000110098004e009000b9
:10386c00be009000210098004e0090009e00900039
:10387c003100980090000700114180004e0090002c
:10388c0001087800314180004e00900051009800f2
:10389c00414180004e009000610098002141800061
:1038ac004e00900041009800900007000080fa0044
:1038bc00000006002a00fa00201798003117980023
:1038cc0042179800e4004700623528000f000900f9
:1038dc00b2187800be109000110798002e109000be
:1038ec001e019000020878002e1090000080e80065
:1038fc00201798002e1090008000eb000108780033
:10390c002e1090000080e800201798002e109000d8
:10391c008000eb00010878002e1090000080e80079
:10392c0020179800ce1090002e10900001087800ff
:10393c002e1090000080e800201798000000eb008b
:10394c00000f78000a0037001e00780000004000cd
:10395c0000004700a00090002e1090000108780095
:10396c002e1090000080e800201798001e0fe80031
:10397c001e007800ef0f5000f3ff3600210280008c
:10398c002e109000010878002e1090000080e800a6
:10399c002017980034c0bf008080fb002e109000d0
:1039ac00010878002e1090000080e8002017980085
:1039bc002e1090008000eb00010878002e10900073
:1039cc000080e800201798002e1090000080fa006c
:1039dc00000006000000fa002300070000408000f1
:1039ec00900778004f007800904188003400f9006f
:1039fc004400f9004000f9003e00f9003c00f900d9
:103a0c003a00f9003800f9002c00f9002a00f900fe
:103a1c002800f9002600f9002400f9002200f90022
:103a2c003200f9003600f9004f0778004f06be004f
:103a3c004f05be004f04be004f03be004f02be0038
:103a4c004f01be004f00be004200f900000006000e
:103a5c00100020000080fa00000006000000fa00b0
:103a6c000080fa00000006000400fa00601121003a
:103a7c0001002000008fbe000421ef000021ef00a8
:103a8c001e0078001008880021058000f0ff280037
:103a9c000080600000c0a000200588008460a900a0
:103aac009460a8000481a80004a1a90005e1a80065
:103abc000080fa00000006000000fa0011028000ed
:103acc00f0f12f00008060000050a0001002880070
:103adc000000000000000000904180000000e800a1
:103aec00904188000080fa00000006000000fa00f7
:103afc00904180000000e9009041880090418000d6
:103b0c000000e00005003a0011028000f0f12f00e7
:103b1c000080600010028800000000000080fa00a5
:103b2c00000006000200fa00000f78009e007800ea
:103b3c0064804000800078001e007800110098001e
:103b4c001e0078008080eb00210098009e00780019
:103b5c0064804000800078001e00780031009800de
:103b6c009e00780064804000800078001e00780081
:103b7c00410098001e0078008000eb0001087800de
:103b8c000080fa00000006000200fa00000f780026
:103b9c001e0078008000eb00410098000080fa00c5
:103bac00000006000600fa00100798002107980094
:103bbc001e00900090009000010f78002e009000e5
:103bcc009e007800110098001e007800a000900064
:103bdc002e009000210098001e007800200090001c
:103bec00ae009000110098001e007800ae0090000e
:103bfc00210098002e0090009e009000410098003b
:103c0c001e009000100078008000e8001e0090005c
:103c1c00010878000080fa00000006000800fa0095
:103c2c0020079800310798003e0090009000780023
:103c3c00110798001e009000e10f400004003a00ac
:103c4c002e009000c0009000010f78000d0037008e
:103c5c002e00900064004000000f78000300370035
:103c6c001e00780090009000010f78001e00780074
:103c7c0010009000900078001e009000808f500083
:103c8c00f7ff36001e007800900090003e00900078
:103c9c00110098003e00900010009000be009000b3
:103cac00210098003e0090009e00780021009800b2
:103cbc001e007800be009000110098003e0090009d
:103ccc00ae009000410098002e009000100078008b
:103cdc008000e8002e009000010878000080fa00b7
:103cec00000006000400fa00100798001e00900067
:103cfc00c0009000010f78001e0090001000900092
:103d0c009e009000a1009000210098001e009000e1
:103d1c00200090009e0090009100900011009800ef
:103d2c001e007800900090001e009000808f5000c4
:103d3c0004003a001e009000a00090001e007800c5
:103d4c00110098001e0090008000eb0041009800cc
:103d5c001e007800100078008000e9001e0078003a
:103d6c00010878001e007800100078000080fa002e
:103d7c00000006000000fa00a0012000303a880084
:103d8c00213a8000f0f32f0000806000203a880078
:103d9c00213a800000fe2f00008060000010a0007f
:103dac00203a88003200200080072000a109200062
:103dbc00337420008049780081497800824978006a
:103dcc00103a8000000178000200a000600420007e
:103ddc007105200023742000804978008149780007
:103dec008249780000000000113a80000000270092
:103dfc008080600000002300808f5000faff3a00a2
:103e0c0000000000113a80000002200000806000d9
:103e1c000000e000fbff320040a7a900c082a9000f
:103e2c00c282a900b900070000e224004700070085
:103e3c000000eb0001000700ffff37000800fa004c
:103e4c00300798006000b800008fbe000040eb0007
:103e5c0040479800040037001200200003002000a7
:103e6c001e0f41005e97490090022500e10f2000d3
:103e7c001e01be00800f5100818f5900f6ff3600e5
:103e8c006000b800008fbe004e4090000004e000bf
:103e9c0008003200c282a900210c800080ff2f0094
:103eac0000806000200c88000040eb004047980028
:103ebc0008003700c282a800210c800080ff2f0070
:103ecc00008060003000b300200c880010c0b300ec
:103edc004047980000000000e3ff37000000fa00a4
:103eec000080fa00000006000000fa001021ef002c
:103efc001e21ef000621ef001421ef00606d200061
:103f0c00600888000080eb00d00888003105800034
:103f1c00f0ff28000080600000d0a0003005880071
:103f2c0084e0a90094e0a80011e1a8001fe1a8001a
:103f3c000080fa00000006000000fa00a0088000d3
:103f4c000080ea000080fa00000006000200fa007f
:103f5c00000f78001021ef001e21ef000621ef006a
:103f6c001421ef001e0078008000eb000001be0061
:103f7c0000ec200061212000b2f107000000780065
:103f8c00600888000080eb00d008880031058000b4
:103f9c00f0ff28000080600000d0a00030058800f1
:103fac0084e0a90094e0a80011e1a8001fe1a8009a
:103fbc000080fa00000006000400fa00a10880004e
:103fcc00010f780070418000e40f50000a003600a9
:103fdc00804180001e001000100798006041800096
:103fec009e009000808f5000060036009e009000ce
:103ffc006141880003003700704180000000e80038
:10400c00704188009e007800814188000080fa0091
:10401c00000006004200f800801f7800000220001b
:10402c0010028800811f7800829fbe00849fbe0012
:10403c00869fbe00889fbe008a9fbe008c9fbe00dc
:10404c008e1f78003600f8003200f8002200f800cd
:10405c002400f8002600f8002800f8002a00f800d8
:10406c002c00f8003800f8003a00f8003c00f8008a
:10407c003e00f8004000f8004400f8003400f8005e
:10408c0090418000801f7800004080000f0878006d
:10409c00420a0200000000000040800090077800f7
:1040ac004f007800904188003400f9004400f9007a
:1040bc004000f9003e00f9003c00f9003a00f9001c
:1040cc003800f9002c00f9002a00f9002800f9004a
:1040dc002600f9002400f9002200f9003200f90052
:1040ec003600f9004f0778004f06be004f05be00a2
:1040fc004f04be004f03be004f02be004f01be0076
:10410c004f00be004200f900000006000000fa005b
:10411c0031368000f00f2e008080600000202100de
:10412c0001007000303688001221ef0091088000e9
:10413c00f0fc2f0000806000900888001221a9007c
:10414c0012c1a90070192000700888000a21ef0024
:10415c0085a1a8008461a800210c800080ff2f009d
:10416c0000806000200c8800c0172000100c880014
:0c417c0013e1a8000080fa00000006001b
:020000040000fa
:10418800341c00005000000000000000000800007f
:104198001c000000000000003408000000140000ab
:1041a800000000001c0800001000000000000000d3
:1041b800320800000200000002000000ef000000ca
:1041c8002c080000060000000000000000000000ad
:020000040000fa
:0200000401f009
:04000000ffff0000fe
:020000040000fa
:0200000401f009
:04000400ffff0000fa
:020000040000fa
:0200000401f009
:04000800ffff0000f6
:020000040000fa
:0200000401f009
:04000c0007000000e9
:020000040000fa
:0200000401f009
:04001000620000008a
:020000040000fa
:0200000401f009
:040014005f00000089
:020000040000fa
:0200000401f009
:04001800f7000000ed
:020000040000fa
:0200000401f009
:04001c00deff000003
:00000001FF
